{
  "contractName": "KryptoBirdz",
  "abi": [
    {
      "inputs": [],
      "stateMutability": "nonpayable",
      "type": "constructor"
    },
    {
      "anonymous": false,
      "inputs": [
        {
          "indexed": true,
          "internalType": "address",
          "name": "from",
          "type": "address"
        },
        {
          "indexed": true,
          "internalType": "address",
          "name": "to",
          "type": "address"
        },
        {
          "indexed": true,
          "internalType": "uint256",
          "name": "tokenId",
          "type": "uint256"
        }
      ],
      "name": "Transfer",
      "type": "event"
    },
    {
      "inputs": [
        {
          "internalType": "address",
          "name": "_owner",
          "type": "address"
        }
      ],
      "name": "balanceOf",
      "outputs": [
        {
          "internalType": "uint256",
          "name": "",
          "type": "uint256"
        }
      ],
      "stateMutability": "view",
      "type": "function",
      "constant": true
    },
    {
      "inputs": [
        {
          "internalType": "uint256",
          "name": "",
          "type": "uint256"
        }
      ],
      "name": "kryptoBirdz",
      "outputs": [
        {
          "internalType": "string",
          "name": "",
          "type": "string"
        }
      ],
      "stateMutability": "view",
      "type": "function",
      "constant": true
    },
    {
      "inputs": [],
      "name": "name",
      "outputs": [
        {
          "internalType": "string",
          "name": "",
          "type": "string"
        }
      ],
      "stateMutability": "view",
      "type": "function",
      "constant": true
    },
    {
      "inputs": [
        {
          "internalType": "uint256",
          "name": "_tokenId",
          "type": "uint256"
        }
      ],
      "name": "ownerOf",
      "outputs": [
        {
          "internalType": "address",
          "name": "",
          "type": "address"
        }
      ],
      "stateMutability": "view",
      "type": "function",
      "constant": true
    },
    {
      "inputs": [],
      "name": "symbol",
      "outputs": [
        {
          "internalType": "string",
          "name": "",
          "type": "string"
        }
      ],
      "stateMutability": "view",
      "type": "function",
      "constant": true
    },
    {
      "inputs": [
        {
          "internalType": "uint256",
          "name": "index",
          "type": "uint256"
        }
      ],
      "name": "tokenByIndex",
      "outputs": [
        {
          "internalType": "uint256",
          "name": "",
          "type": "uint256"
        }
      ],
      "stateMutability": "view",
      "type": "function",
      "constant": true
    },
    {
      "inputs": [
        {
          "internalType": "address",
          "name": "owner",
          "type": "address"
        },
        {
          "internalType": "uint256",
          "name": "index",
          "type": "uint256"
        }
      ],
      "name": "tokenOfOwnerByIndex",
      "outputs": [
        {
          "internalType": "uint256",
          "name": "",
          "type": "uint256"
        }
      ],
      "stateMutability": "view",
      "type": "function",
      "constant": true
    },
    {
      "inputs": [],
      "name": "totalSupply",
      "outputs": [
        {
          "internalType": "uint256",
          "name": "",
          "type": "uint256"
        }
      ],
      "stateMutability": "view",
      "type": "function",
      "constant": true
    },
    {
      "inputs": [
        {
          "internalType": "address",
          "name": "to",
          "type": "address"
        },
        {
          "internalType": "string",
          "name": "_kryptoBird",
          "type": "string"
        }
      ],
      "name": "mint",
      "outputs": [],
      "stateMutability": "nonpayable",
      "type": "function"
    }
  ],
  "bytecode": "0x60806040523480156200001157600080fd5b506040518060400160405280600b81526020017f4b727970746f426972647a0000000000000000000000000000000000000000008152506040518060400160405280600381526020017f4b425a00000000000000000000000000000000000000000000000000000000008152508181816000908051906020019062000098929190620000bc565b508060019080519060200190620000b1929190620000bc565b5050505050620001d0565b828054620000ca906200019b565b90600052602060002090601f016020900481019282620000ee57600085556200013a565b82601f106200010957805160ff19168380011785556200013a565b828001600101855582156200013a579182015b82811115620001395782518255916020019190600101906200011c565b5b5090506200014991906200014d565b5090565b5b80821115620001685760008160009055506001016200014e565b5090565b7f4e487b7100000000000000000000000000000000000000000000000000000000600052602260045260246000fd5b60006002820490506001821680620001b457607f821691505b602082108103620001ca57620001c96200016c565b5b50919050565b6114f780620001e06000396000f3fe608060405234801561001057600080fd5b50600436106100935760003560e01c80636352211e116100665780636352211e1461013457806370a082311461016457806393ab6e561461019457806395d89b41146101c4578063d0def521146101e257610093565b806306fdde031461009857806318160ddd146100b65780632f745c59146100d45780634f6ccce714610104575b600080fd5b6100a06101fe565b6040516100ad9190610c05565b60405180910390f35b6100be610290565b6040516100cb9190610c40565b60405180910390f35b6100ee60048036038101906100e99190610cf9565b61029d565b6040516100fb9190610c40565b60405180910390f35b61011e60048036038101906101199190610d39565b61034d565b60405161012b9190610c40565b60405180910390f35b61014e60048036038101906101499190610d39565b6103be565b60405161015b9190610d75565b60405180910390f35b61017e60048036038101906101799190610d90565b61046f565b60405161018b9190610c40565b60405180910390f35b6101ae60048036038101906101a99190610d39565b610526565b6040516101bb9190610c05565b60405180910390f35b6101cc6105d2565b6040516101d99190610c05565b60405180910390f35b6101fc60048036038101906101f79190610ef2565b610664565b005b60606000805461020d90610f7d565b80601f016020809104026020016040519081016040528092919081815260200182805461023990610f7d565b80156102865780601f1061025b57610100808354040283529160200191610286565b820191906000526020600020905b81548152906001019060200180831161026957829003601f168201915b5050505050905090565b6000600480549050905090565b60006102a88361046f565b82106102e9576040517f08c379a00000000000000000000000000000000000000000000000000000000081526004016102e090611020565b60405180910390fd5b600660008473ffffffffffffffffffffffffffffffffffffffff1673ffffffffffffffffffffffffffffffffffffffff168152602001908152602001600020828154811061033a57610339611040565b5b9060005260206000200154905092915050565b6000610357610290565b8210610398576040517f08c379a000000000000000000000000000000000000000000000000000000000815260040161038f906110e1565b60405180910390fd5b600482815481106103ac576103ab611040565b5b90600052602060002001549050919050565b6000806002600084815260200190815260200160002060009054906101000a900473ffffffffffffffffffffffffffffffffffffffff169050600073ffffffffffffffffffffffffffffffffffffffff168173ffffffffffffffffffffffffffffffffffffffff1603610466576040517f08c379a000000000000000000000000000000000000000000000000000000000815260040161045d90611173565b60405180910390fd5b80915050919050565b60008073ffffffffffffffffffffffffffffffffffffffff168273ffffffffffffffffffffffffffffffffffffffff16036104df576040517f08c379a00000000000000000000000000000000000000000000000000000000081526004016104d690611205565b60405180910390fd5b600360008373ffffffffffffffffffffffffffffffffffffffff1673ffffffffffffffffffffffffffffffffffffffff168152602001908152602001600020549050919050565b6008818154811061053657600080fd5b90600052602060002001600091509050805461055190610f7d565b80601f016020809104026020016040519081016040528092919081815260200182805461057d90610f7d565b80156105ca5780601f1061059f576101008083540402835291602001916105ca565b820191906000526020600020905b8154815290600101906020018083116105ad57829003601f168201915b505050505081565b6060600180546105e190610f7d565b80601f016020809104026020016040519081016040528092919081815260200182805461060d90610f7d565b801561065a5780601f1061062f5761010080835404028352916020019161065a565b820191906000526020600020905b81548152906001019060200180831161063d57829003601f168201915b5050505050905090565b6009816040516106749190611261565b908152602001604051809103902060009054906101000a900460ff16156106d0576040517f08c379a00000000000000000000000000000000000000000000000000000000081526004016106c7906112ea565b60405180910390fd5b60088190806001815401808255809150506001900390600052602060002001600090919091909150908051906020019061070b929190610ac9565b50600060016008805490506107209190611339565b905061072c8382610768565b600160098360405161073e9190611261565b908152602001604051809103902060006101000a81548160ff021916908315150217905550505050565b6107728282610789565b61077b8161094a565b6107858282610993565b5050565b600073ffffffffffffffffffffffffffffffffffffffff168273ffffffffffffffffffffffffffffffffffffffff16036107f8576040517f08c379a00000000000000000000000000000000000000000000000000000000081526004016107ef906113df565b60405180910390fd5b61080181610a57565b15610841576040517f08c379a00000000000000000000000000000000000000000000000000000000081526004016108389061144b565b60405180910390fd5b816002600083815260200190815260200160002060006101000a81548173ffffffffffffffffffffffffffffffffffffffff021916908373ffffffffffffffffffffffffffffffffffffffff1602179055506001600360008473ffffffffffffffffffffffffffffffffffffffff1673ffffffffffffffffffffffffffffffffffffffff16815260200190815260200160002060008282546108e3919061146b565b92505081905550808273ffffffffffffffffffffffffffffffffffffffff16600073ffffffffffffffffffffffffffffffffffffffff167fddf252ad1be2c89b69c2b068fc378daa952ba7f163c4a11628f55a4df523b3ef60405160405180910390a45050565b6004805490506005600083815260200190815260200160002081905550600481908060018154018082558091505060019003906000526020600020016000909190919091505550565b600660008373ffffffffffffffffffffffffffffffffffffffff1673ffffffffffffffffffffffffffffffffffffffff168152602001908152602001600020805490506007600083815260200190815260200160002081905550600660008373ffffffffffffffffffffffffffffffffffffffff1673ffffffffffffffffffffffffffffffffffffffff1681526020019081526020016000208190806001815401808255809150506001900390600052602060002001600090919091909150555050565b6000806002600084815260200190815260200160002060009054906101000a900473ffffffffffffffffffffffffffffffffffffffff169050600073ffffffffffffffffffffffffffffffffffffffff168173ffffffffffffffffffffffffffffffffffffffff161415915050919050565b828054610ad590610f7d565b90600052602060002090601f016020900481019282610af75760008555610b3e565b82601f10610b1057805160ff1916838001178555610b3e565b82800160010185558215610b3e579182015b82811115610b3d578251825591602001919060010190610b22565b5b509050610b4b9190610b4f565b5090565b5b80821115610b68576000816000905550600101610b50565b5090565b600081519050919050565b600082825260208201905092915050565b60005b83811015610ba6578082015181840152602081019050610b8b565b83811115610bb5576000848401525b50505050565b6000601f19601f8301169050919050565b6000610bd782610b6c565b610be18185610b77565b9350610bf1818560208601610b88565b610bfa81610bbb565b840191505092915050565b60006020820190508181036000830152610c1f8184610bcc565b905092915050565b6000819050919050565b610c3a81610c27565b82525050565b6000602082019050610c556000830184610c31565b92915050565b6000604051905090565b600080fd5b600080fd5b600073ffffffffffffffffffffffffffffffffffffffff82169050919050565b6000610c9a82610c6f565b9050919050565b610caa81610c8f565b8114610cb557600080fd5b50565b600081359050610cc781610ca1565b92915050565b610cd681610c27565b8114610ce157600080fd5b50565b600081359050610cf381610ccd565b92915050565b60008060408385031215610d1057610d0f610c65565b5b6000610d1e85828601610cb8565b9250506020610d2f85828601610ce4565b9150509250929050565b600060208284031215610d4f57610d4e610c65565b5b6000610d5d84828501610ce4565b91505092915050565b610d6f81610c8f565b82525050565b6000602082019050610d8a6000830184610d66565b92915050565b600060208284031215610da657610da5610c65565b5b6000610db484828501610cb8565b91505092915050565b600080fd5b600080fd5b7f4e487b7100000000000000000000000000000000000000000000000000000000600052604160045260246000fd5b610dff82610bbb565b810181811067ffffffffffffffff82111715610e1e57610e1d610dc7565b5b80604052505050565b6000610e31610c5b565b9050610e3d8282610df6565b919050565b600067ffffffffffffffff821115610e5d57610e5c610dc7565b5b610e6682610bbb565b9050602081019050919050565b82818337600083830152505050565b6000610e95610e9084610e42565b610e27565b905082815260208101848484011115610eb157610eb0610dc2565b5b610ebc848285610e73565b509392505050565b600082601f830112610ed957610ed8610dbd565b5b8135610ee9848260208601610e82565b91505092915050565b60008060408385031215610f0957610f08610c65565b5b6000610f1785828601610cb8565b925050602083013567ffffffffffffffff811115610f3857610f37610c6a565b5b610f4485828601610ec4565b9150509250929050565b7f4e487b7100000000000000000000000000000000000000000000000000000000600052602260045260246000fd5b60006002820490506001821680610f9557607f821691505b602082108103610fa857610fa7610f4e565b5b50919050565b7f455243373231456e756d657261626c653a206f776e657220696e646578206f7560008201527f74206f6620626f756e6473000000000000000000000000000000000000000000602082015250565b600061100a602b83610b77565b915061101582610fae565b604082019050919050565b6000602082019050818103600083015261103981610ffd565b9050919050565b7f4e487b7100000000000000000000000000000000000000000000000000000000600052603260045260246000fd5b7f455243373231456e756d657261626c653a20676c6f62616c20696e646578206f60008201527f7574206f6620626f756e64730000000000000000000000000000000000000000602082015250565b60006110cb602c83610b77565b91506110d68261106f565b604082019050919050565b600060208201905081810360008301526110fa816110be565b9050919050565b7f4552433732313a206f776e657220717565727920666f72206e6f6e657869737460008201527f656e7420746f6b656e0000000000000000000000000000000000000000000000602082015250565b600061115d602983610b77565b915061116882611101565b604082019050919050565b6000602082019050818103600083015261118c81611150565b9050919050565b7f4552433732313a2062616c616e636520717565727920666f7220746865207a6560008201527f726f206164647265737300000000000000000000000000000000000000000000602082015250565b60006111ef602a83610b77565b91506111fa82611193565b604082019050919050565b6000602082019050818103600083015261121e816111e2565b9050919050565b600081905092915050565b600061123b82610b6c565b6112458185611225565b9350611255818560208601610b88565b80840191505092915050565b600061126d8284611230565b915081905092915050565b7f4572726f72202d206b727970746f4269726420616c726561647920657869737460008201527f7300000000000000000000000000000000000000000000000000000000000000602082015250565b60006112d4602183610b77565b91506112df82611278565b604082019050919050565b60006020820190508181036000830152611303816112c7565b9050919050565b7f4e487b7100000000000000000000000000000000000000000000000000000000600052601160045260246000fd5b600061134482610c27565b915061134f83610c27565b9250828210156113625761136161130a565b5b828203905092915050565b7f4552433732313a206d696e74696e6720746f20746865207a65726f206164647260008201527f6573730000000000000000000000000000000000000000000000000000000000602082015250565b60006113c9602383610b77565b91506113d48261136d565b604082019050919050565b600060208201905081810360008301526113f8816113bc565b9050919050565b7f4552433732313a20746f6b656e20616c7265616479206d696e74656400000000600082015250565b6000611435601c83610b77565b9150611440826113ff565b602082019050919050565b6000602082019050818103600083015261146481611428565b9050919050565b600061147682610c27565b915061148183610c27565b9250827fffffffffffffffffffffffffffffffffffffffffffffffffffffffffffffffff038211156114b6576114b561130a565b5b82820190509291505056fea26469706673582212203d3f58ea835ad20fb459439fb7d4466c95bfcc18bd5cfd943ad2cb3c59c4be6164736f6c634300080d0033",
  "immutableReferences": {},
  "source": "// SPDX-License-Identifier: MIT\r\npragma solidity >=0.4.22 <0.9.0;\r\n\r\nimport './ERC721Connector.sol';\r\n\r\ncontract KryptoBirdz is ERC721Connector {\r\n\r\n  //  ->    \r\n  string[] public kryptoBirdz;\r\n\r\n  mapping(string => bool) _kryptoBirdzExists;\r\n\r\n  // ERC721 -> tokenId \r\n  // KryptoBirdz ->  \r\n  function mint(address to, string memory _kryptoBird) public {\r\n\r\n    require(!_kryptoBirdzExists[_kryptoBird], 'Error - kryptoBird already exists');\r\n    // this is deprecated - uint _id = kryptoBirdz.push(_kryptoBird);\r\n    kryptoBirdz.push(_kryptoBird);\r\n    uint _id = kryptoBirdz.length - 1;\r\n\r\n    // .push no longer returns the length but a ref to the added element\r\n    _mint(to, _id);\r\n\r\n    _kryptoBirdzExists[_kryptoBird] = true;\r\n  }\r\n\r\n  // initialize this contract to inherit\r\n  // name and symbol from ERC721Metadata so that\r\n  // the name is KryptoBirdz and the symbol is KBZ\r\n\r\n  constructor() ERC721Connector(\"KryptoBirdz\", \"KBZ\") {\r\n  }\r\n\r\n}",
  "sourcePath": "C:\\git\\project\\SWF2023_2PO\\src\\contracts\\KryptoBirdz.sol",
  "compiler": {
    "name": "solc",
    "version": "0.8.13+commit.abaa5c0e.Emscripten.clang"
  },
  "schemaVersion": "3.4.14",
  "updatedAt": "2023-07-31T14:12:46.816Z",
  "networkType": "ethereum",
  "devdoc": {
    "kind": "dev",
    "methods": {
      "balanceOf(address)": {
        "details": "NFTs assigned to the zero address are considered invalid, and this  function throws for queries about the zero address.",
        "params": {
          "_owner": "An address for whom to query the balance"
        },
        "returns": {
          "_0": "The number of NFTs owned by `_owner`, possibly zero"
        }
      },
      "ownerOf(uint256)": {
        "details": "NFTs assigned to zero address are considered invalid, and queries  about them do throw.",
        "params": {
          "_tokenId": "The identifier for an NFT"
        },
        "returns": {
          "_0": "The address of the owner of the NFT"
        }
      }
    },
    "version": 1
  },
  "userdoc": {
    "kind": "user",
    "methods": {
      "balanceOf(address)": {
        "notice": "Count all NFTs assigned to an owner"
      },
      "ownerOf(uint256)": {
        "notice": "Find the owner of an NFT"
      }
    },
    "version": 1
  }
}